:0A06D600040C3F800000020A00142B
:10069900538E7F5389F0438901E4F58A758CEEC244
:0806A9008DD28CD2AFD2A92240
:03000B000203F2FB
:1003F200C0E0C0F0C083C082C0D075D000C000C0D1
:1004020001C002C003C004C005C006C007758A004F
:10041200758CEED3E5149463E513940040177513BD
:1004220000751400E511451070047F0180027F0001
:100432007510008F11E50B6464450A7004F508F528
:1004420009E50B450A7005F508750901E511451026
:10045200704D741A2514F58274063513F583E493EE
:10046200FCE412032FAB0FAA0EA90DA80C12020F67
:10047200C004C005C006C007AC0AAD0BE412032AD3
:10048200A804A905AA06AB07D007D006D005D00458
:100492001202AC5006C281D2808004C280C281E5C1
:1004A200114510604D741A2514F58274063513F542
:1004B20083E493FCE412032FAB0FAA0EA90DA80C40
:1004C20012020FC004C005C006C007AC0AAD0BE49F
:1004D20012032AA804A905AA06AB07D007D006D0A2
:1004E20005D0041202AC5006C280D2818004C280C0
:1004F200C281E50964014508700B7414250BF50BE4
:10050200E4350AF50AE5094508700C74EC250BF58B
:100512000B74FF350AF50AE51A2514F514E51935A9
:1005220013F5131206C68F12AC12E412032FE4FB6A
:10053200FA7961784312020F8F188E178D168C1577
:10054200E512C39400402AE512D394FF5023E4FF3E
:10055200FE7D207C42AB18AA17A916A81512010627
:10056200E4FBFA792078411200151203638E198F89
:100572001AD007D006D005D004D003D002D001D0C3
:0C05820000D0D0D082D083D0F0D0E03286
:1006B100120699E4F50FF50E750D80750C3FF519CD
:0506C100751A0A80FE1D
:10067E00E4FDEDC39FEE6480F8748098500C007C0E
:0A068E00057B09DBFEDCFC0D80E8B3
:01069800223F
:10061A00000306090D101316191C1F2225282B2D5D
:10062A00303336383B3D40424447494B4D4F515396
:10063A00545658595A5C5D5E5F60616262636364D6
:10064A006464646464646363626261605F5E5D5C87
:10065A005A5958565453514F4D4B49474442403DBD
:10066A003B383633302D2B2825221F1C1916131020
:04067A000D0906035D
:1006C600C2B2C2B4D2B4D2B320B5FDC2B3AFA02277
:10000E000203CFE86480F8E933E83360110460F04E
:10001E00ED33EC337009E8FCE9FDEAFEEBFF220458
:10002E0060DED3EB9FEA9EE99DE8C2E78CF0C2F753
:10003E0095F0400CE8CCF8E9CDF9EACEFAEBCFFB1F
:10004E0012039A85D0F05804700320D5B3E80470DB
:10005E00075002B2D50203D992D5EC0460F7E4CC76
:10006E00C0E0C398F8603B94186008400DD0E0FBE8
:10007E000203B1E4FBFAC9FC8028E830E406E4C9C7
:10008E00FBE4CAFCE830E305E4C9CACBFCE854073C
:10009E006010F8C3E913F9EA13FAEB13FBEC13FC47
:1000AE00D8F130F52FC3E49CFCEF9BFFEE9AFEEDEA
:1000BE0099FDD0E0FBEF4E4D4C701222DB03020394
:1000CE00D6EC2CFCEF33FFEE33FEED33FDED30E7D7
:1000DE00EB0203B1EF2BFFEE3AFEED39FDD0E0FB64
:1000EE0050130BBB00030203D9ED13FDEE13FEEF0D
:0800FE0013FFEC13FC0203B137
:10010600EC4D6011E8497017ED33EC3304600DE4F3
:10011600FCFFFEFD22E933E8330470F80203CF1238
:10012600039A58046009E4CC248150062850090239
:1001360003D92840030203D6C0E0EB4A7044B980D5
:1001460006D0E0FB0203C5EF4E701CBD8008EBFF36
:10015600EAFEE9FD80EBE98DF0A4FEE5F00201EF91
:10016600E9CDF9EAFEEBFFEF89F0A4FCE5F0CE89D4
:10017600F0A42EFFE435F0CD89F0A42DFEE435F091
:100186008067EF4E7005BD80D780C3EF8BF0A4ACBF
:10019600F0EE8BF0A42CFCE435F0F8EF8AF0A42CFA
:1001A600E5F038FCE433CB8DF0A42CFCE5F03BF80D
:1001B600EE8AF0A42CFCE5F038F8E433CF89F0A4FD
:1001C6002CFCE5F038CF3400CE89F0A42FFFE5F003
:1001D6003EFEE433C98DF0A42EFEE5F039CD8AF05B
:1001E600A42FFFE5F03EFEE43DFD33D0E0FB5007D3
:1001F6000BBB000F0203D9EC2CFCEF33FFEE33FEF2
:06020600ED33FD0203B11F
:10020C000203D9EC5D046005E8590470030203CFC6
:10021C0012039A580460F6EC4860F2EC7004FDFE90
:10022C00FF22C860DB2481C85009C39860025006C5
:10023C000203D69850CAF582E9294B4A7005AB8265
:10024C000203C575F0007C1A7880C3EF9BEE9AED23
:10025C0099400DC3EF9BFFEE9AFEED99FDE842F03D
:10026C00DC23ACF0D0E0FFD0E0FED0E0FDAB822090
:10027C00E7101BEB60BAEC2CFCEF33FFEE33FEED1A
:10028C0033FD0203B1E803F830E705C0F075F00068
:10029C00EF2FFFEE33FEED33FD40B830E7C280AAFE
:1002AC0074F8CC6480CCC86480C8F58204604FC3F9
:1002BC00EB9FF5F0EA9E42F0E99D42F0E89C45F098
:1002CC00603C501DE5825FFFE582D313CB5BCBF422
:1002DC002B5582FB50280ABA002409B9002008804B
:1002EC001DE5825BFBE582D313CF5FCFF4C3132FE5
:1002FC005582FF50090EBE00050DBD00010CC3EB6D
:10030C009FF5F0EA9E42F0E99D42F0E89C45F060D2
:09031C0007CC4820E701B3EC22F4
:1003250075F020800E75F010800575F0087D007E53
:10033500007F003392D530D5031203E4EC3340102F
:10034500EF33FFEE33FEED33FDEC33FCD5F0ED225C
:0E035500E5F0247EA2D513CC92E7CDCEFF2298
:10036300EDD2E7CD33EC3392D524814006E4FFFE92
:10037300FDFC22FCE4CFCECDCC24E0501174FF80F1
:10038300EDC3CC13CCCD13CDCE13CECF13CF04708E
:07039300F030D5DE0203E4A7
:10039A00E9D2E7C933E833F892D5EDD2E7CD33ECA9
:0703AA0033FC5002B2D52222
:1003B100EC30E7100FBF000C0EBE00080DBD0004AD
:1003C1000BEB6014A2D5EB13FCED92E7FD2274FF59
:1003D100FCFDFEFF22E480F8A2D574FF13FC7D80B2
:0303E100E480EFC6
:0300000002058E68
:0C058E00787FE4F6D8FD75811A0205D5CF
:0E03E400C3E49FFFE49EFEE49DFDE49CFC222A
:10059A000206B1E493A3F8E493A34003F68001F2C0
:1005AA0008DFF48029E493A3F85407240CC8C33362
:1005BA00C4540F4420C8834004F456800146F6DF31
:1005CA00E4800B01020408102040809006D6E47EE5
:1005DA00019360BCA3FF543F30E509541FFEE49326
:1005EA00A360010ECF54C025E060A840B8E493A3ED
:1005FA00FAE493A3F8E493A3C8C582C8CAC583CA18
:10060A00F0A3C8C582C8CAC583CADFE9DEE780BECF
:0106E0000019
:00000001FF
